{
  "_format": "hh-sol-artifact-1",
  "contractName": "RNG",
  "sourceName": "contracts/RNG.sol",
  "abi": [
    {
      "inputs": [
        {
          "internalType": "uint256",
          "name": "nextIndex",
          "type": "uint256"
        }
      ],
      "name": "getNextRandomNumber",
      "outputs": [
        {
          "internalType": "uint256",
          "name": "",
          "type": "uint256"
        }
      ],
      "stateMutability": "view",
      "type": "function"
    },
    {
      "inputs": [
        {
          "internalType": "uint256",
          "name": "nextIndex",
          "type": "uint256"
        },
        {
          "internalType": "uint256",
          "name": "max",
          "type": "uint256"
        }
      ],
      "name": "getNextRandomRange",
      "outputs": [
        {
          "internalType": "uint256",
          "name": "",
          "type": "uint256"
        }
      ],
      "stateMutability": "view",
      "type": "function"
    },
    {
      "inputs": [],
      "name": "getRandomBytes",
      "outputs": [
        {
          "internalType": "bytes32",
          "name": "addr",
          "type": "bytes32"
        }
      ],
      "stateMutability": "view",
      "type": "function"
    },
    {
      "inputs": [],
      "name": "getRandomNumber",
      "outputs": [
        {
          "internalType": "uint256",
          "name": "",
          "type": "uint256"
        }
      ],
      "stateMutability": "view",
      "type": "function"
    },
    {
      "inputs": [
        {
          "internalType": "uint256",
          "name": "max",
          "type": "uint256"
        }
      ],
      "name": "getRandomRange",
      "outputs": [
        {
          "internalType": "uint256",
          "name": "",
          "type": "uint256"
        }
      ],
      "stateMutability": "view",
      "type": "function"
    }
  ],
  "bytecode": "0x6080604052348015600f57600080fd5b506103988061001f6000396000f3fe608060405234801561001057600080fd5b50600436106100575760003560e01c80633c051a921461005c57806395fa91351461008c578063ba23ec8e146100bc578063c46e63f4146100da578063dbdff2c11461010a575b600080fd5b61007660048036038101906100719190610237565b610128565b6040516100839190610286565b60405180910390f35b6100a660048036038101906100a191906102a1565b610170565b6040516100b39190610286565b60405180910390f35b6100c46101ac565b6040516100d191906102e7565b60405180910390f35b6100f460048036038101906100ef91906102a1565b6101ce565b6040516101019190610286565b60405180910390f35b6101126101ea565b60405161011f9190610286565b60405180910390f35b600081836101346101ea565b176040516020016101459190610286565b6040516020818303038152906040528051906020012060001c6101689190610331565b905092915050565b60008161017b6101ea565b1760405160200161018c9190610286565b6040516020818303038152906040528051906020012060001c9050919050565b60006040516000810160208160008060185afa6101c557fe5b81519250505090565b6000816101d96101ea565b6101e39190610331565b9050919050565b60006101f46101ac565b60001c905090565b600080fd5b6000819050919050565b61021481610201565b811461021f57600080fd5b50565b6000813590506102318161020b565b92915050565b6000806040838503121561024e5761024d6101fc565b5b600061025c85828601610222565b925050602061026d85828601610222565b9150509250929050565b61028081610201565b82525050565b600060208201905061029b6000830184610277565b92915050565b6000602082840312156102b7576102b66101fc565b5b60006102c584828501610222565b91505092915050565b6000819050919050565b6102e1816102ce565b82525050565b60006020820190506102fc60008301846102d8565b92915050565b7f4e487b7100000000000000000000000000000000000000000000000000000000600052601260045260246000fd5b600061033c82610201565b915061034783610201565b92508261035757610356610302565b5b82820690509291505056fea2646970667358221220b20ee7db9fe9b5dacee2a7e6809cd223e05c079d9907752b535e7807c263007b64736f6c634300081a0033",
  "linkReferences": {},
  "deployedLinkReferences": {}
}